{"abi":[{"type":"function","name":"BUILD_METADATA","inputs":[],"outputs":[{"name":"","type":"bytes","internalType":"bytes"}],"stateMutability":"view"},{"type":"function","name":"PLUGIN_CONTRACT_NAME","inputs":[],"outputs":[{"name":"","type":"string","internalType":"string"}],"stateMutability":"view"},{"type":"function","name":"PLUGIN_REPO_ENS_SUBDOMAIN_NAME","inputs":[],"outputs":[{"name":"","type":"string","internalType":"string"}],"stateMutability":"view"},{"type":"function","name":"PLUGIN_SETUP_CONTRACT_NAME","inputs":[],"outputs":[{"name":"","type":"string","internalType":"string"}],"stateMutability":"view"},{"type":"function","name":"RELEASE_METADATA","inputs":[],"outputs":[{"name":"","type":"bytes","internalType":"bytes"}],"stateMutability":"view"},{"type":"function","name":"VERSION_BUILD","inputs":[],"outputs":[{"name":"","type":"uint8","internalType":"uint8"}],"stateMutability":"view"},{"type":"function","name":"VERSION_RELEASE","inputs":[],"outputs":[{"name":"","type":"uint8","internalType":"uint8"}],"stateMutability":"view"}],"bytecode":{"object":"0x6101f5610034600b8282823980515f1a607314602857634e487b7160e01b5f525f60045260245ffd5b305f52607381538281f3fe7300000000000000000000000000000000000000003014608060405260043610610085575f3560e01c8063a0b0523211610063578063a0b05232146100a8578063b7fc37fd146100d9578063c1d9159514610115578063f54929871461013c575f5ffd5b80630fef486a14610089578063185fa07c146100a8578063917ec2e814610089575b5f5ffd5b610091600181565b60405160ff90911681526020015b60405180910390f35b6100cc6040518060400160405280600581526020016464756d6d7960d81b81525081565b60405161009f91906101a6565b6100cc6040518060400160405280601781526020017f53746167656450726f706f73616c50726f636573736f7200000000000000000081525081565b6100cc604051806040016040528060088152602001677465737474696e6760c01b81525081565b6100cc6040518060400160405280601c81526020017f53746167656450726f706f73616c50726f636573736f7253657475700000000081525081565b5f81518084528060208401602086015e5f602082860101526020601f19601f83011685010191505092915050565b602081525f6101b86020830184610178565b939250505056fea26469706673582212205502a84abbd6086ba187727a75a8b860408fdaec91c37e6e9f36945b782a29fe64736f6c634300081c0033","linkReferences":{}},"methodIdentifiers":{"BUILD_METADATA()":"a0b05232","PLUGIN_CONTRACT_NAME()":"b7fc37fd","PLUGIN_REPO_ENS_SUBDOMAIN_NAME()":"c1d91595","PLUGIN_SETUP_CONTRACT_NAME()":"f5492987","RELEASE_METADATA()":"185fa07c","VERSION_BUILD()":"0fef486a","VERSION_RELEASE()":"917ec2e8"},"storageLayout":{"storage":[],"types":{}},"id":58}