{"abi":[{"type":"function","name":"SET_METADATA_PERMISSION_ID","inputs":[],"outputs":[{"name":"","type":"bytes32","internalType":"bytes32"}],"stateMutability":"view"},{"type":"function","name":"SET_TARGET_CONFIG_PERMISSION_ID","inputs":[],"outputs":[{"name":"","type":"bytes32","internalType":"bytes32"}],"stateMutability":"view"},{"type":"function","name":"UPGRADE_PLUGIN_PERMISSION_ID","inputs":[],"outputs":[{"name":"","type":"bytes32","internalType":"bytes32"}],"stateMutability":"view"},{"type":"function","name":"advanceProposal","inputs":[{"name":"_proposalId","type":"uint256","internalType":"uint256"}],"outputs":[],"stateMutability":"nonpayable"},{"type":"function","name":"canExecute","inputs":[{"name":"_proposalId","type":"uint256","internalType":"uint256"}],"outputs":[{"name":"","type":"bool","internalType":"bool"}],"stateMutability":"view"},{"type":"function","name":"canProposalAdvance","inputs":[{"name":"_proposalId","type":"uint256","internalType":"uint256"}],"outputs":[{"name":"","type":"bool","internalType":"bool"}],"stateMutability":"view"},{"type":"function","name":"cancel","inputs":[{"name":"_proposalId","type":"uint256","internalType":"uint256"}],"outputs":[],"stateMutability":"nonpayable"},{"type":"function","name":"createProposal","inputs":[{"name":"_metadata","type":"bytes","internalType":"bytes"},{"name":"_actions","type":"tuple[]","internalType":"struct Action[]","components":[{"name":"to","type":"address","internalType":"address"},{"name":"value","type":"uint256","internalType":"uint256"},{"name":"data","type":"bytes","internalType":"bytes"}]},{"name":"_allowFailureMap","type":"uint128","internalType":"uint128"},{"name":"_startDate","type":"uint64","internalType":"uint64"},{"name":"_proposalParams","type":"bytes[][]","internalType":"bytes[][]"}],"outputs":[{"name":"proposalId","type":"uint256","internalType":"uint256"}],"stateMutability":"nonpayable"},{"type":"function","name":"createProposal","inputs":[{"name":"_metadata","type":"bytes","internalType":"bytes"},{"name":"_actions","type":"tuple[]","internalType":"struct Action[]","components":[{"name":"to","type":"address","internalType":"address"},{"name":"value","type":"uint256","internalType":"uint256"},{"name":"data","type":"bytes","internalType":"bytes"}]},{"name":"_startDate","type":"uint64","internalType":"uint64"},{"name":"","type":"uint64","internalType":"uint64"},{"name":"_data","type":"bytes","internalType":"bytes"}],"outputs":[{"name":"proposalId","type":"uint256","internalType":"uint256"}],"stateMutability":"nonpayable"},{"type":"function","name":"customProposalParamsABI","inputs":[],"outputs":[{"name":"","type":"string","internalType":"string"}],"stateMutability":"pure"},{"type":"function","name":"dao","inputs":[],"outputs":[{"name":"","type":"address","internalType":"contract IDAO"}],"stateMutability":"view"},{"type":"function","name":"edit","inputs":[{"name":"_proposalId","type":"uint256","internalType":"uint256"},{"name":"_metadata","type":"bytes","internalType":"bytes"},{"name":"_actions","type":"tuple[]","internalType":"struct Action[]","components":[{"name":"to","type":"address","internalType":"address"},{"name":"value","type":"uint256","internalType":"uint256"},{"name":"data","type":"bytes","internalType":"bytes"}]}],"outputs":[],"stateMutability":"nonpayable"},{"type":"function","name":"execute","inputs":[{"name":"_proposalId","type":"uint256","internalType":"uint256"}],"outputs":[],"stateMutability":"nonpayable"},{"type":"function","name":"getBodyProposalId","inputs":[{"name":"_proposalId","type":"uint256","internalType":"uint256"},{"name":"_stageId","type":"uint16","internalType":"uint16"},{"name":"_body","type":"address","internalType":"address"}],"outputs":[{"name":"","type":"uint256","internalType":"uint256"}],"stateMutability":"view"},{"type":"function","name":"getBodyResult","inputs":[{"name":"_proposalId","type":"uint256","internalType":"uint256"},{"name":"_stageId","type":"uint16","internalType":"uint16"},{"name":"_body","type":"address","internalType":"address"}],"outputs":[{"name":"","type":"uint8","internalType":"enum StagedProposalProcessor.ResultType"}],"stateMutability":"view"},{"type":"function","name":"getCreateProposalParams","inputs":[{"name":"_proposalId","type":"uint256","internalType":"uint256"},{"name":"_stageId","type":"uint16","internalType":"uint16"},{"name":"_index","type":"uint256","internalType":"uint256"}],"outputs":[{"name":"","type":"bytes","internalType":"bytes"}],"stateMutability":"view"},{"type":"function","name":"getCurrentConfigIndex","inputs":[],"outputs":[{"name":"","type":"uint16","internalType":"uint16"}],"stateMutability":"view"},{"type":"function","name":"getCurrentTargetConfig","inputs":[],"outputs":[{"name":"","type":"tuple","internalType":"struct IPlugin.TargetConfig","components":[{"name":"target","type":"address","internalType":"address"},{"name":"operation","type":"uint8","internalType":"enum IPlugin.Operation"}]}],"stateMutability":"view"},{"type":"function","name":"getMetadata","inputs":[],"outputs":[{"name":"","type":"bytes","internalType":"bytes"}],"stateMutability":"view"},{"type":"function","name":"getProposal","inputs":[{"name":"_proposalId","type":"uint256","internalType":"uint256"}],"outputs":[{"name":"","type":"tuple","internalType":"struct StagedProposalProcessor.Proposal","components":[{"name":"allowFailureMap","type":"uint128","internalType":"uint128"},{"name":"lastStageTransition","type":"uint64","internalType":"uint64"},{"name":"currentStage","type":"uint16","internalType":"uint16"},{"name":"stageConfigIndex","type":"uint16","internalType":"uint16"},{"name":"executed","type":"bool","internalType":"bool"},{"name":"canceled","type":"bool","internalType":"bool"},{"name":"creator","type":"address","internalType":"address"},{"name":"actions","type":"tuple[]","internalType":"struct Action[]","components":[{"name":"to","type":"address","internalType":"address"},{"name":"value","type":"uint256","internalType":"uint256"},{"name":"data","type":"bytes","internalType":"bytes"}]},{"name":"targetConfig","type":"tuple","internalType":"struct IPlugin.TargetConfig","components":[{"name":"target","type":"address","internalType":"address"},{"name":"operation","type":"uint8","internalType":"enum IPlugin.Operation"}]}]}],"stateMutability":"view"},{"type":"function","name":"getProposalTally","inputs":[{"name":"_proposalId","type":"uint256","internalType":"uint256"},{"name":"_stageId","type":"uint16","internalType":"uint16"}],"outputs":[{"name":"approvals","type":"uint256","internalType":"uint256"},{"name":"vetoes","type":"uint256","internalType":"uint256"}],"stateMutability":"view"},{"type":"function","name":"getStages","inputs":[{"name":"_index","type":"uint256","internalType":"uint256"}],"outputs":[{"name":"","type":"tuple[]","internalType":"struct StagedProposalProcessor.Stage[]","components":[{"name":"bodies","type":"tuple[]","internalType":"struct StagedProposalProcessor.Body[]","components":[{"name":"addr","type":"address","internalType":"address"},{"name":"isManual","type":"bool","internalType":"bool"},{"name":"tryAdvance","type":"bool","internalType":"bool"},{"name":"resultType","type":"uint8","internalType":"enum StagedProposalProcessor.ResultType"}]},{"name":"maxAdvance","type":"uint64","internalType":"uint64"},{"name":"minAdvance","type":"uint64","internalType":"uint64"},{"name":"voteDuration","type":"uint64","internalType":"uint64"},{"name":"approvalThreshold","type":"uint16","internalType":"uint16"},{"name":"vetoThreshold","type":"uint16","internalType":"uint16"},{"name":"cancelable","type":"bool","internalType":"bool"},{"name":"editable","type":"bool","internalType":"bool"}]}],"stateMutability":"view"},{"type":"function","name":"getTargetConfig","inputs":[],"outputs":[{"name":"","type":"tuple","internalType":"struct IPlugin.TargetConfig","components":[{"name":"target","type":"address","internalType":"address"},{"name":"operation","type":"uint8","internalType":"enum IPlugin.Operation"}]}],"stateMutability":"view"},{"type":"function","name":"getTrustedForwarder","inputs":[],"outputs":[{"name":"","type":"address","internalType":"address"}],"stateMutability":"view"},{"type":"function","name":"hasAdvancePermission","inputs":[{"name":"_account","type":"address","internalType":"address"}],"outputs":[{"name":"","type":"bool","internalType":"bool"}],"stateMutability":"view"},{"type":"function","name":"hasExecutePermission","inputs":[{"name":"_account","type":"address","internalType":"address"}],"outputs":[{"name":"","type":"bool","internalType":"bool"}],"stateMutability":"view"},{"type":"function","name":"hasSucceeded","inputs":[{"name":"_proposalId","type":"uint256","internalType":"uint256"}],"outputs":[{"name":"","type":"bool","internalType":"bool"}],"stateMutability":"view"},{"type":"function","name":"implementation","inputs":[],"outputs":[{"name":"","type":"address","internalType":"address"}],"stateMutability":"view"},{"type":"function","name":"initialize","inputs":[{"name":"_dao","type":"address","internalType":"contract IDAO"},{"name":"_trustedForwarder","type":"address","internalType":"address"},{"name":"_stages","type":"tuple[]","internalType":"struct StagedProposalProcessor.Stage[]","components":[{"name":"bodies","type":"tuple[]","internalType":"struct StagedProposalProcessor.Body[]","components":[{"name":"addr","type":"address","internalType":"address"},{"name":"isManual","type":"bool","internalType":"bool"},{"name":"tryAdvance","type":"bool","internalType":"bool"},{"name":"resultType","type":"uint8","internalType":"enum StagedProposalProcessor.ResultType"}]},{"name":"maxAdvance","type":"uint64","internalType":"uint64"},{"name":"minAdvance","type":"uint64","internalType":"uint64"},{"name":"voteDuration","type":"uint64","internalType":"uint64"},{"name":"approvalThreshold","type":"uint16","internalType":"uint16"},{"name":"vetoThreshold","type":"uint16","internalType":"uint16"},{"name":"cancelable","type":"bool","internalType":"bool"},{"name":"editable","type":"bool","internalType":"bool"}]},{"name":"_pluginMetadata","type":"bytes","internalType":"bytes"},{"name":"_targetConfig","type":"tuple","internalType":"struct IPlugin.TargetConfig","components":[{"name":"target","type":"address","internalType":"address"},{"name":"operation","type":"uint8","internalType":"enum IPlugin.Operation"}]}],"outputs":[],"stateMutability":"nonpayable"},{"type":"function","name":"isTrustedForwarder","inputs":[{"name":"_forwarder","type":"address","internalType":"address"}],"outputs":[{"name":"","type":"bool","internalType":"bool"}],"stateMutability":"view"},{"type":"function","name":"pluginType","inputs":[],"outputs":[{"name":"","type":"uint8","internalType":"enum IPlugin.PluginType"}],"stateMutability":"pure"},{"type":"function","name":"proposalCount","inputs":[],"outputs":[{"name":"","type":"uint256","internalType":"uint256"}],"stateMutability":"view"},{"type":"function","name":"protocolVersion","inputs":[],"outputs":[{"name":"","type":"uint8[3]","internalType":"uint8[3]"}],"stateMutability":"pure"},{"type":"function","name":"proxiableUUID","inputs":[],"outputs":[{"name":"","type":"bytes32","internalType":"bytes32"}],"stateMutability":"view"},{"type":"function","name":"reportProposalResult","inputs":[{"name":"_proposalId","type":"uint256","internalType":"uint256"},{"name":"_stageId","type":"uint16","internalType":"uint16"},{"name":"_resultType","type":"uint8","internalType":"enum StagedProposalProcessor.ResultType"},{"name":"_tryAdvance","type":"bool","internalType":"bool"}],"outputs":[],"stateMutability":"nonpayable"},{"type":"function","name":"setMetadata","inputs":[{"name":"_metadata","type":"bytes","internalType":"bytes"}],"outputs":[],"stateMutability":"nonpayable"},{"type":"function","name":"setTargetConfig","inputs":[{"name":"_targetConfig","type":"tuple","internalType":"struct IPlugin.TargetConfig","components":[{"name":"target","type":"address","internalType":"address"},{"name":"operation","type":"uint8","internalType":"enum IPlugin.Operation"}]}],"outputs":[],"stateMutability":"nonpayable"},{"type":"function","name":"setTrustedForwarder","inputs":[{"name":"_forwarder","type":"address","internalType":"address"}],"outputs":[],"stateMutability":"nonpayable"},{"type":"function","name":"state","inputs":[{"name":"_proposalId","type":"uint256","internalType":"uint256"}],"outputs":[{"name":"","type":"uint8","internalType":"enum StagedProposalProcessor.ProposalState"}],"stateMutability":"view"},{"type":"function","name":"supportsInterface","inputs":[{"name":"_interfaceId","type":"bytes4","internalType":"bytes4"}],"outputs":[{"name":"","type":"bool","internalType":"bool"}],"stateMutability":"view"},{"type":"function","name":"updateStages","inputs":[{"name":"_stages","type":"tuple[]","internalType":"struct StagedProposalProcessor.Stage[]","components":[{"name":"bodies","type":"tuple[]","internalType":"struct StagedProposalProcessor.Body[]","components":[{"name":"addr","type":"address","internalType":"address"},{"name":"isManual","type":"bool","internalType":"bool"},{"name":"tryAdvance","type":"bool","internalType":"bool"},{"name":"resultType","type":"uint8","internalType":"enum StagedProposalProcessor.ResultType"}]},{"name":"maxAdvance","type":"uint64","internalType":"uint64"},{"name":"minAdvance","type":"uint64","internalType":"uint64"},{"name":"voteDuration","type":"uint64","internalType":"uint64"},{"name":"approvalThreshold","type":"uint16","internalType":"uint16"},{"name":"vetoThreshold","type":"uint16","internalType":"uint16"},{"name":"cancelable","type":"bool","internalType":"bool"},{"name":"editable","type":"bool","internalType":"bool"}]}],"outputs":[],"stateMutability":"nonpayable"},{"type":"function","name":"upgradeTo","inputs":[{"name":"newImplementation","type":"address","internalType":"address"}],"outputs":[],"stateMutability":"nonpayable"},{"type":"function","name":"upgradeToAndCall","inputs":[{"name":"newImplementation","type":"address","internalType":"address"},{"name":"data","type":"bytes","internalType":"bytes"}],"outputs":[],"stateMutability":"payable"},{"type":"event","name":"AdminChanged","inputs":[{"name":"previousAdmin","type":"address","indexed":false,"internalType":"address"},{"name":"newAdmin","type":"address","indexed":false,"internalType":"address"}],"anonymous":false},{"type":"event","name":"BeaconUpgraded","inputs":[{"name":"beacon","type":"address","indexed":true,"internalType":"address"}],"anonymous":false},{"type":"event","name":"Initialized","inputs":[{"name":"version","type":"uint8","indexed":false,"internalType":"uint8"}],"anonymous":false},{"type":"event","name":"MetadataSet","inputs":[{"name":"metadata","type":"bytes","indexed":false,"internalType":"bytes"}],"anonymous":false},{"type":"event","name":"ProposalAdvanced","inputs":[{"name":"proposalId","type":"uint256","indexed":true,"internalType":"uint256"},{"name":"stageId","type":"uint16","indexed":true,"internalType":"uint16"},{"name":"sender","type":"address","indexed":true,"internalType":"address"}],"anonymous":false},{"type":"event","name":"ProposalCanceled","inputs":[{"name":"proposalId","type":"uint256","indexed":true,"internalType":"uint256"},{"name":"stageId","type":"uint16","indexed":true,"internalType":"uint16"},{"name":"sender","type":"address","indexed":true,"internalType":"address"}],"anonymous":false},{"type":"event","name":"ProposalCreated","inputs":[{"name":"proposalId","type":"uint256","indexed":true,"internalType":"uint256"},{"name":"creator","type":"address","indexed":true,"internalType":"address"},{"name":"startDate","type":"uint64","indexed":false,"internalType":"uint64"},{"name":"endDate","type":"uint64","indexed":false,"internalType":"uint64"},{"name":"metadata","type":"bytes","indexed":false,"internalType":"bytes"},{"name":"actions","type":"tuple[]","indexed":false,"internalType":"struct Action[]","components":[{"name":"to","type":"address","internalType":"address"},{"name":"value","type":"uint256","internalType":"uint256"},{"name":"data","type":"bytes","internalType":"bytes"}]},{"name":"allowFailureMap","type":"uint256","indexed":false,"internalType":"uint256"}],"anonymous":false},{"type":"event","name":"ProposalEdited","inputs":[{"name":"proposalId","type":"uint256","indexed":true,"internalType":"uint256"},{"name":"stageId","type":"uint16","indexed":true,"internalType":"uint16"},{"name":"sender","type":"address","indexed":true,"internalType":"address"},{"name":"metadata","type":"bytes","indexed":false,"internalType":"bytes"},{"name":"actions","type":"tuple[]","indexed":false,"internalType":"struct Action[]","components":[{"name":"to","type":"address","internalType":"address"},{"name":"value","type":"uint256","internalType":"uint256"},{"name":"data","type":"bytes","internalType":"bytes"}]}],"anonymous":false},{"type":"event","name":"ProposalExecuted","inputs":[{"name":"proposalId","type":"uint256","indexed":true,"internalType":"uint256"}],"anonymous":false},{"type":"event","name":"ProposalResultReported","inputs":[{"name":"proposalId","type":"uint256","indexed":true,"internalType":"uint256"},{"name":"stageId","type":"uint16","indexed":true,"internalType":"uint16"},{"name":"body","type":"address","indexed":true,"internalType":"address"}],"anonymous":false},{"type":"event","name":"StagesUpdated","inputs":[{"name":"stages","type":"tuple[]","indexed":false,"internalType":"struct StagedProposalProcessor.Stage[]","components":[{"name":"bodies","type":"tuple[]","internalType":"struct StagedProposalProcessor.Body[]","components":[{"name":"addr","type":"address","internalType":"address"},{"name":"isManual","type":"bool","internalType":"bool"},{"name":"tryAdvance","type":"bool","internalType":"bool"},{"name":"resultType","type":"uint8","internalType":"enum StagedProposalProcessor.ResultType"}]},{"name":"maxAdvance","type":"uint64","internalType":"uint64"},{"name":"minAdvance","type":"uint64","internalType":"uint64"},{"name":"voteDuration","type":"uint64","internalType":"uint64"},{"name":"approvalThreshold","type":"uint16","internalType":"uint16"},{"name":"vetoThreshold","type":"uint16","internalType":"uint16"},{"name":"cancelable","type":"bool","internalType":"bool"},{"name":"editable","type":"bool","internalType":"bool"}]}],"anonymous":false},{"type":"event","name":"SubProposalCreated","inputs":[{"name":"proposalId","type":"uint256","indexed":true,"internalType":"uint256"},{"name":"stageId","type":"uint16","indexed":true,"internalType":"uint16"},{"name":"body","type":"address","indexed":true,"internalType":"address"},{"name":"bodyProposalId","type":"uint256","indexed":false,"internalType":"uint256"}],"anonymous":false},{"type":"event","name":"SubProposalNotCreated","inputs":[{"name":"proposalId","type":"uint256","indexed":true,"internalType":"uint256"},{"name":"stageId","type":"uint16","indexed":true,"internalType":"uint16"},{"name":"body","type":"address","indexed":true,"internalType":"address"},{"name":"reason","type":"bytes","indexed":false,"internalType":"bytes"}],"anonymous":false},{"type":"event","name":"TargetSet","inputs":[{"name":"newTargetConfig","type":"tuple","indexed":false,"internalType":"struct IPlugin.TargetConfig","components":[{"name":"target","type":"address","internalType":"address"},{"name":"operation","type":"uint8","internalType":"enum IPlugin.Operation"}]}],"anonymous":false},{"type":"event","name":"TrustedForwarderUpdated","inputs":[{"name":"forwarder","type":"address","indexed":true,"internalType":"address"}],"anonymous":false},{"type":"event","name":"Upgraded","inputs":[{"name":"implementation","type":"address","indexed":true,"internalType":"address"}],"anonymous":false},{"type":"error","name":"AlreadyInitialized","inputs":[]},{"type":"error","name":"DaoUnauthorized","inputs":[{"name":"dao","type":"address","internalType":"address"},{"name":"where","type":"address","internalType":"address"},{"name":"who","type":"address","internalType":"address"},{"name":"permissionId","type":"bytes32","internalType":"bytes32"}]},{"type":"error","name":"DelegateCallFailed","inputs":[]},{"type":"error","name":"FunctionDeprecated","inputs":[]},{"type":"error","name":"InsufficientGas","inputs":[]},{"type":"error","name":"InvalidTargetConfig","inputs":[{"name":"targetConfig","type":"tuple","internalType":"struct IPlugin.TargetConfig","components":[{"name":"target","type":"address","internalType":"address"},{"name":"operation","type":"uint8","internalType":"enum IPlugin.Operation"}]}]},{"type":"error","name":"NonexistentProposal","inputs":[{"name":"proposalId","type":"uint256","internalType":"uint256"}]},{"type":"error","name":"ProposalAdvanceForbidden","inputs":[{"name":"proposalId","type":"uint256","internalType":"uint256"}]},{"type":"error","name":"ProposalAlreadyExists","inputs":[{"name":"proposalId","type":"uint256","internalType":"uint256"}]},{"type":"error","name":"ProposalCanNotBeCancelled","inputs":[{"name":"proposalId","type":"uint256","internalType":"uint256"},{"name":"stageId","type":"uint16","internalType":"uint16"}]},{"type":"error","name":"ProposalCanNotBeEdited","inputs":[{"name":"proposalId","type":"uint256","internalType":"uint256"},{"name":"stageId","type":"uint16","internalType":"uint16"}]},{"type":"error","name":"ProposalExecutionForbidden","inputs":[{"name":"proposalId","type":"uint256","internalType":"uint256"}]},{"type":"error","name":"StageCountZero","inputs":[]},{"type":"error","name":"StartDateInvalid","inputs":[{"name":"","type":"uint64","internalType":"uint64"}]},{"type":"error","name":"Uint16MaxSizeExceeded","inputs":[]},{"type":"error","name":"UnexpectedProposalState","inputs":[{"name":"proposalId","type":"uint256","internalType":"uint256"},{"name":"currentState","type":"uint8","internalType":"uint8"},{"name":"allowedStates","type":"bytes32","internalType":"bytes32"}]}],"bytecode":{"object":"0x60a060405230608052348015610013575f5ffd5b5061001c610021565b6100dd565b5f54610100900460ff161561008c5760405162461bcd60e51b815260206004820152602760248201527f496e697469616c697a61626c653a20636f6e747261637420697320696e697469604482015266616c697a696e6760c81b606482015260840160405180910390fd5b5f5460ff908116146100db575f805460ff191660ff9081179091556040519081527f7f26b83ff96e1f2b6a682f133852f6798a09c465da95921460cefb38474024989060200160405180910390a15b565b608051614cc76101115f395f8181610f8001528181610fc0015281816113eb0152818161142b01526114a20152614cc75ff3fe608060405260043610610254575f3560e01c8063761f8acb1161013f578063ce1b815f116100b3578063ea65ab8211610078578063ea65ab8214610781578063ee57e36f146107a0578063ef8cccb0146107bf578063fd8d2d36146107eb578063fdbd7eb31461080a578063fe0d94c114610829575f5ffd5b8063ce1b815f146106e5578063da35c66414610709578063da7422281461071d578063dd63c06f1461073a578063e306bee71461074e575f5ffd5b8063bfde57c311610104578063bfde57c314610608578063c218c13214610627578063c7f758a814610646578063c98425ee14610672578063c9c4bfca14610693578063cc63604a146106c6575f5ffd5b8063761f8acb146105645780637a5b4f59146105835780637e3f1353146105975780638cb75059146105b6578063bb225da2146105e9575f5ffd5b80633e4f49e6116101d65780634f1ef2861161019b5780634f1ef286146104b557806352303962146104c857806352d1902d146104e8578063572b6c05146104fc5780635c23bfb7146105315780635c60da1b14610550575f5ffd5b80633e4f49e6146103ea57806340e58ee5146104165780634162169f1461043557806341de6830146104665780634e3ed5e914610481575f5ffd5b80632ae9c6001161021c5780632ae9c6001461035957806330196ab91461037a57806335ade049146103985780633659cfe6146103b75780633d3f4b1b146103d6575f5ffd5b806301ffc9a7146102585780630b47808d1461028c5780631abf3f11146102ad5780631c622dea146102d05780631f3cb5b41461032d575b5f5ffd5b348015610263575f5ffd5b506102776102723660046136d4565b610848565b60405190151581526020015b60405180910390f35b348015610297575f5ffd5b506102ab6102a6366004613778565b610858565b005b3480156102b8575f5ffd5b506101645460405161ffff9091168152602001610283565b3480156102db575f5ffd5b5061031f6102ea366004613814565b5f92835261015f6020908152604080852061ffff9490941685529281528284206001600160a01b039290921684525290205490565b604051908152602001610283565b348015610338575f5ffd5b5061034c610347366004613851565b610a98565b60405161028391906138b2565b348015610364575f5ffd5b5061036d610b51565b60405161028391906138c4565b348015610385575f5ffd5b506102ab6103943660046138f7565b5050565b3480156103a3575f5ffd5b5061031f6103b2366004613c28565b610b7a565b3480156103c2575f5ffd5b506102ab6103d1366004613ce1565b610f76565b3480156103e1575f5ffd5b5061034c61103a565b3480156103f5575f5ffd5b50610409610404366004613cfc565b61105a565b6040516102839190613d27565b348015610421575f5ffd5b506102ab610430366004613cfc565b611244565b348015610440575f5ffd5b5060fb546001600160a01b03165b6040516001600160a01b039091168152602001610283565b348015610471575f5ffd5b505f5b6040516102839190613d51565b34801561048c575f5ffd5b506104a061049b366004613d5e565b611387565b60408051928352602083019190915201610283565b6102ab6104c3366004613d88565b6113e1565b3480156104d3575f5ffd5b506102ab6104e2366004613de1565b50505050565b3480156104f3575f5ffd5b5061031f611496565b348015610507575f5ffd5b50610277610516366004613ce1565b610164546201000090046001600160a01b0390811691161490565b34801561053c575f5ffd5b5061027761054b366004613cfc565b611547565b34801561055b575f5ffd5b5061044e61156b565b34801561056f575f5ffd5b5061047461057e366004613814565b611579565b34801561058e575f5ffd5b5061034c6115b1565b3480156105a2575f5ffd5b506102776105b1366004613ce1565b611665565b3480156105c1575f5ffd5b5061031f7f568cc693d84eb1901f8bcecba154cbdef23ca3cf67efc0a0b698528a06c660f781565b3480156105f4575f5ffd5b506102ab610603366004613e48565b611710565b348015610613575f5ffd5b506102ab610622366004613e62565b611762565b348015610632575f5ffd5b50610277610641366004613cfc565b61186c565b348015610651575f5ffd5b50610665610660366004613cfc565b6118cf565b6040516102839190613fb6565b34801561067d575f5ffd5b50610686611b22565b6040516102839190614077565b34801561069e575f5ffd5b5061031f7f821b6e3a557148015a918c89e5d092e878a69854a2d1a410635f771bd5a8a3f581565b3480156106d1575f5ffd5b506102776106e0366004613cfc565b611b89565b3480156106f0575f5ffd5b50610164546201000090046001600160a01b031661044e565b348015610714575f5ffd5b5061031f611bcb565b348015610728575f5ffd5b506102ab610737366004613ce1565b50565b348015610745575f5ffd5b50610686611be5565b348015610759575f5ffd5b5061031f7f4707e94b25cfce1a7c363508fbb838c35864388ad77284b248282b9746982b9b81565b34801561078c575f5ffd5b5061031f61079b366004614085565b611c93565b3480156107ab575f5ffd5b506102ab6107ba366004614124565b611cb9565b3480156107ca575f5ffd5b506107de6107d9366004613cfc565b611d37565b6040516102839190614156565b3480156107f6575f5ffd5b50610277610805366004613ce1565b611f16565b348015610815575f5ffd5b506102ab610824366004613cfc565b611f62565b348015610834575f5ffd5b506102ab610843366004613cfc565b612005565b5f61085282612072565b92915050565b60fb547fa73a22e0fc9b71a5463a75c9711d02d08dae26e85aa1033f4416b719a0239107906108a1906001600160a01b0316306108936120e6565b8461089c612146565b6121a1565b5f86815261016260205260408120906108cd886108bd8361225b565b6108c7600361225b565b1761227d565b825461ffff600160d01b820481165f908152610163602052604081208054949550600160c01b909304909116929091908390811061090d5761090d6142d9565b5f91825260209091206002909102018054909150158015906109415750600383600481111561093e5761093e613d13565b14155b15610994578983600481111561095957610959613d13565b610963600361225b565b604051632c2eee6560e11b8152600481019390935260ff909116602483015260448201526064015b60405180910390fd5b6001810154600160e81b900460ff166109cd57604051638b32333560e01b8152600481018b905261ffff8316602482015260440161098b565b6109da600285015f61361e565b5f5b86811015610a3757846002018888838181106109fa576109fa6142d9565b9050602002810190610a0c91906142ed565b81546001810183555f9283526020909220909160030201610a2d8282614388565b50506001016109dc565b50610a406120e6565b6001600160a01b03168261ffff168b7fc1d7dc1770290440bd536be5eca85bc1e54960c21ef0f9a838033941a7392d8d8c8c8c8c604051610a8494939291906144e2565b60405180910390a450505050505050505050565b5f8381526101616020908152604080832061ffff8616845282528083208484529091529020805460609190610acc9061430b565b80601f0160208091040260200160405190810160405280929190818152602001828054610af89061430b565b8015610b435780601f10610b1a57610100808354040283529160200191610b43565b820191905f5260205f20905b815481529060010190602001808311610b2657829003601f168201915b505050505090509392505050565b610b5961363c565b506040805160608101825260018152600460208201525f9181019190915290565b60fb545f907f8c433a4cd6b51969eca37f974940894297b9fcf4b282a213fea5cd8f85289c9090610bb7906001600160a01b0316306108936120e6565b5f610bc66101645461ffff1690565b90508061ffff165f03610bec5760405163d345a56b60e01b815260040160405180910390fd5b5f610bf56120e6565b9050610c5a888a83604051602001610c0f939291906145d9565b60408051601f198184030181528282528051602091820120468483015243848401523060608501526080808501919091528251808503909101815260a0909301909152815191012090565b5f81815261016260205260409020805491955090600160801b90046001600160401b031615610c9f576040516312dba68f60e01b81526004810186905260240161098b565b80546fffffffffffffffffffffffffffffffff19166001600160801b038916178155610cc9611be5565b80516003830180546001600160a01b031981166001600160a01b0390931692831782556020840151919283916001600160a81b03191617600160a01b836001811115610d1757610d17613d13565b021790555050506001810180546001600160a01b0319166001600160a01b038416179055805461ffff60d01b1916600160d01b61ffff8516021781556001600160401b0387165f03610d6b57429650610da9565b426001600160401b0316876001600160401b03161015610da957604051636f6a0b6560e11b81526001600160401b038816600482015260240161098b565b805467ffffffffffffffff60801b1916600160801b6001600160401b03891602178155855161ffff1015610df057604051638d48ed3360e01b815260040160405180910390fd5b60015b8651811015610e98575f5b878281518110610e1057610e106142d9565b602002602001015151811015610e8f57878281518110610e3257610e326142d9565b60200260200101518181518110610e4b57610e4b6142d9565b6020908102919091018101515f8981526101618352604080822061ffff8716835284528082208583529093529190912090610e869082614616565b50600101610dfe565b50600101610df3565b5080548651610f099187915f91600160801b90046001600160401b031690610eea57604080515f8082526020820190925290610ee4565b6060815260200190600190039081610ecf5790505b506122da565b895f81518110610efc57610efc6142d9565b60200260200101516122da565b816001600160a01b0316857fa6c1f8f4276dc3f243459e13b557c84e8f4e90b2e09070bad5f6909cee687c92835f0160109054906101000a90046001600160401b03165f8e8e8e604051610f619594939291906146d0565b60405180910390a35050505095945050505050565b6001600160a01b037f0000000000000000000000000000000000000000000000000000000000000000163003610fbe5760405162461bcd60e51b815260040161098b9061472e565b7f00000000000000000000000000000000000000000000000000000000000000006001600160a01b0316610ff0612726565b6001600160a01b0316146110165760405162461bcd60e51b815260040161098b9061477a565b61101f81612741565b604080515f808252602082019092526107379183919061277c565b60606040518060600160405280602c8152602001614c66602c9139905090565b5f818152610162602052604081208054600160e01b900460ff16156110825750600292915050565b8054600160e81b900460ff161561109c5750600192915050565b8054600160801b90046001600160401b03166110ce57604051630853c2a360e41b81526004810184905260240161098b565b805461ffff600160d01b820481165f90815261016360205260408120805491939092600160c01b90910416908110611108576111086142d9565b5f9182526020909120600290910201600181015483549192504291611140916001600160401b0390811691600160801b9004166147da565b6001600160401b03161015611159575060049392505050565b600181015482544291611187916001600160401b03600160401b909204821691600160801b909104166147da565b6001600160401b0316111561119f57505f9392505050565b6001810154600160d01b900461ffff16156111f6576001810154825442916111de916001600160401b03600160801b92839004811692909104166147da565b6001600160401b031611156111f657505f9392505050565b815460018201545f9161122791879161ffff600160c01b91829004811692918204811691600160d01b9004166128e6565b9050801561123a57506003949350505050565b505f949350505050565b60fb547fbdfef02014e2b7a6c80226083f80d72d22fcf656d917f92d242c5b61e108bcd39061127f906001600160a01b0316306108936120e6565b5f828152610162602052604090206112a48361129b600361225b565b6108c75f61225b565b50805461ffff600160d01b820481165f908152610163602052604081208054600160c01b90940490921692909190839081106112e2576112e26142d9565b905f5260205f209060020201905080600101601c9054906101000a900460ff1661132c57604051638b9b77af60e01b81526004810186905261ffff8316602482015260440161098b565b825460ff60e81b1916600160e81b1783556113456120e6565b6001600160a01b03168261ffff16867f578c7050405154b6a8167f305908011ff85e3231eff1fbce2bbe95500b92f20360405160405180910390a45050505050565b5f828152610162602052604081208054829190600160801b90046001600160401b03166113ca57604051630853c2a360e41b81526004810186905260240161098b565b6113d48585612934565b92509250505b9250929050565b6001600160a01b037f00000000000000000000000000000000000000000000000000000000000000001630036114295760405162461bcd60e51b815260040161098b9061472e565b7f00000000000000000000000000000000000000000000000000000000000000006001600160a01b031661145b612726565b6001600160a01b0316146114815760405162461bcd60e51b815260040161098b9061477a565b61148a82612741565b6103948282600161277c565b5f306001600160a01b037f000000000000000000000000000000000000000000000000000000000000000016146115355760405162461bcd60e51b815260206004820152603860248201527f555550535570677261646561626c653a206d757374206e6f742062652063616c60448201527f6c6564207468726f7567682064656c656761746563616c6c0000000000000000606482015260840161098b565b505f516020614c1f5f395f51905f5290565b5f60036115538361105a565b600481111561156457611564613d13565b1492915050565b5f611574612726565b905090565b5f9283526101606020908152604080852061ffff9490941685529281528284206001600160a01b039290921684525290205460ff1690565b7f47ff9796f72d439c6e5c30a24b9fad985a00c85a9f2258074c400a94f8746b0080546060919081906115e39061430b565b80601f016020809104026020016040519081016040528092919081815260200182805461160f9061430b565b801561165a5780601f106116315761010080835404028352916020019161165a565b820191905f5260205f20905b81548152906001019060200180831161163d57829003601f168201915b505050505091505090565b5f61167860fb546001600160a01b031690565b6001600160a01b031663fdef910630847fb014ce248804cab6a144581acce1eeb70ce5d54f08433b989d73bb0ccee3d3f96116b1612146565b6040518663ffffffff1660e01b81526004016116d19594939291906147f9565b602060405180830381865afa1580156116ec573d5f5f3e3d5ffd5b505050506040513d601f19601f82011682018060405250810190610852919061482c565b60fb547f568cc693d84eb1901f8bcecba154cbdef23ca3cf67efc0a0b698528a06c660f79061174b906001600160a01b0316306108936120e6565b61039461175d36849003840184614847565b612b98565b5f54610100900460ff161580801561178057505f54600160ff909116105b806117995750303b15801561179957505f5460ff166001145b6117fc5760405162461bcd60e51b815260206004820152602e60248201527f496e697469616c697a61626c653a20636f6e747261637420697320616c72656160448201526d191e481a5b9a5d1a585b1a5e995960921b606482015260840161098b565b5f805460ff19166001179055801561181d575f805461ff0019166101001790555b8015611862575f805461ff0019169055604051600181527f7f26b83ff96e1f2b6a682f133852f6798a09c465da95921460cefb38474024989060200160405180910390a15b5050505050505050565b5f81815261016260205260408120816118848461105a565b905061188f82612c85565b80156118c7575060038160048111156118aa576118aa613d13565b14806118c7575060028160048111156118c5576118c5613d13565b145b949350505050565b61192960408051610120810182525f808252602080830182905282840182905260608084018390526080840183905260a0840183905260c0840183905260e084015283518085019094528184528301529061010082015290565b5f8281526101626020908152604080832081516101208101835281546001600160801b03811682526001600160401b03600160801b8204168286015261ffff600160c01b8204811683860152600160d01b820416606083015260ff600160e01b8204811615156080840152600160e81b90910416151560a082015260018201546001600160a01b031660c08201526002820180548451818702810187019095528085529195929460e0870194939192919084015b82821015611abe575f848152602090819020604080516060810182526003860290920180546001600160a01b0316835260018101549383019390935260028301805492939291840191611a2f9061430b565b80601f0160208091040260200160405190810160405280929190818152602001828054611a5b9061430b565b8015611aa65780601f10611a7d57610100808354040283529160200191611aa6565b820191905f5260205f20905b815481529060010190602001808311611a8957829003601f168201915b505050505081525050815260200190600101906119dd565b50505090825250604080518082019091526003830180546001600160a01b0381168352602093840193830190600160a01b900460ff166001811115611b0557611b05613d13565b6001811115611b1657611b16613d13565b90525090525092915050565b604080518082019091525f80825260208201526040805180820190915261012d80546001600160a01b03811683526020830190600160a01b900460ff166001811115611b7057611b70613d13565b6001811115611b8157611b81613d13565b905250919050565b5f818152610162602052604081206003611ba28461105a565b6004811115611bb357611bb3613d13565b148015611bc45750611bc481612c85565b9392505050565b5f604051631bebc11560e01b815260040160405180910390fd5b604080518082019091525f80825260208201526040805180820190915261012d80546001600160a01b03811683525f9291906020830190600160a01b900460ff166001811115611c3757611c37613d13565b6001811115611c4857611c48613d13565b90525080519091506001600160a01b0316611c8e576040518060400160405280611c7a60fb546001600160a01b031690565b6001600160a01b031681526020015f905290505b919050565b5f611caf86865f87868060200190518101906103b29190614966565b9695505050505050565b60fb547f4707e94b25cfce1a7c363508fbb838c35864388ad77284b248282b9746982b9b90611cf4906001600160a01b0316306108936120e6565b611d3283838080601f0160208091040260200160405190810160405280939291908181526020018383808284375f92019190915250612cc292505050565b505050565b6060611d476101645461ffff1690565b61ffff16821180611d56575081155b15611d745760405163d345a56b60e01b815260040160405180910390fd5b5f8281526101636020908152604080832080548251818502810185019093528083529193909284015b82821015611f0b578382905f5260205f209060020201604051806101000160405290815f8201805480602002602001604051908101604052809291908181526020015f905b82821015611e79575f8481526020908190206040805160808101825291850180546001600160a01b038116845260ff600160a01b82048116151595850195909552600160a81b8104851615159284019290925291926060840191600160b01b9004166002811115611e5557611e55613d13565b6002811115611e6657611e66613d13565b8152505081526020019060010190611de2565b505050908252506001918201546001600160401b03808216602080850191909152600160401b830482166040850152600160801b8304909116606084015261ffff600160c01b830481166080850152600160d01b83041660a084015260ff600160e01b83048116151560c0850152600160e81b909204909116151560e090920191909152918352929092019101611d9d565b505050509050919050565b5f611f2960fb546001600160a01b031690565b6001600160a01b031663fdef910630847ff281525e53675515a6ba7cc7bea8a81e649b3608423ee2d73be1752cea8878896116b1612146565b5f81815261016260205260409020611f8382611f7e600361225b565b61227d565b505f611f8d6120e6565b90505f611f9983612c85565b15611fcf57611fa782611f16565b905080611fca57604051639fefd0f160e01b81526004810185905260240161098b565b611ffb565b611fd882611665565b905080611ffb57604051637171293960e11b81526004810185905260240161098b565b6104e28483612d2a565b60fb547ff281525e53675515a6ba7cc7bea8a81e649b3608423ee2d73be1752cea88788990612040906001600160a01b0316306108936120e6565b61204982611b89565b61206957604051639fefd0f160e01b81526004810183905260240161098b565b61039482612f9c565b5f6001600160e01b0319821663041de68360e41b14806120a157506001600160e01b03198216621574e360e91b145b806120bc57506001600160e01b031982166352d1902d60e01b145b806120d757506001600160e01b0319821663afc5b82360e01b145b8061085257506108528261312c565b610164545f9036906201000090046001600160a01b03163314801561210c575060148110155b1561213b575f3661211e601484614a15565b612129928290614a28565b61213291614a4f565b60601c91505090565b3391505090565b5090565b6101645436905f9082906201000090046001600160a01b03163314801561216e575060148110155b15612197575f8036612181601485614a15565b9261218e93929190614a28565b92509250509091565b505f923692509050565b604051637ef7c88360e11b81526001600160a01b0387169063fdef9106906121d590889088908890889088906004016147f9565b602060405180830381865afa1580156121f0573d5f5f3e3d5ffd5b505050506040513d601f19601f82011682018060405250810190612214919061482c565b61225357604051630cb6f8ed60e21b81526001600160a01b0380881660048301528087166024830152851660448201526064810184905260840161098b565b505050505050565b5f81600481111561226e5761226e613d13565b600160ff919091161b92915050565b5f5f6122888461105a565b90505f836122958361225b565b1603611bc457838160048111156122ae576122ae613d13565b604051632c2eee6560e11b8152600481019290925260ff1660248201526044810184905260640161098b565b5f84815261016260209081526040808320805461ffff600160d01b9091048116855261016390935290832080549192909190871690811061231d5761231d6142d9565b5f91825260208220600290910201925090505b8154811015612253575f825f01828154811061234e5761234e6142d9565b5f9182526020909120018054909150600160a01b900460ff1615612372575061271e565b6040805160018082528183019092525f91816020015b60408051606080820183525f8083526020830152918101919091528152602001906001900390816123885790505060408051606081018252308082525f6020830152855483519495509193928401929091635230396291612405918e918e9160ff600160b01b8204811692600160a81b9092041690602401614a9c565b604051602081830303815290604052915060e01b6020820180516001600160e01b038381831617835250505050815250815f81518110612447576124476142d9565b60200260200101819052505f5a8354604080513060208201529081018c905261ffff8b1660608201529192505f9182916001600160a01b03169060800160408051808303601f19018152919052600189015486908c906124b790600160801b90046001600160401b0316826147da565b8a8d51116124d257604080515f8152602081019091526124ed565b8c8b815181106124e4576124e46142d9565b60200260200101515b604051602401612501959493929190614acd565b60408051601f198184030181529181526020820180516001600160e01b0316637532d5c160e11b179052516125369190614b2f565b5f604051808303815f865af19150503d805f811461256f576040519150601f19603f3d011682016040523d82523d5f602084013e612574565b606091505b50915091505f5a9050826125ad5761258d604085614b45565b8110156125ad576040516307099c5360e21b815260040160405180910390fd5b8280156125bb575081516020145b1561269f575f828060200190518101906125d59190614b64565b90508061015f5f8f81526020019081526020015f205f8e61ffff1661ffff1681526020019081526020015f205f895f015f9054906101000a90046001600160a01b03166001600160a01b03166001600160a01b031681526020019081526020015f2081905550865f015f9054906101000a90046001600160a01b03166001600160a01b03168c61ffff168e7fdc04d6b37a483003e6bdc5660d9d9bb22854fffba622b62f658a398efc88ca448460405161269191815260200190565b60405180910390a450612717565b5f8c815261015f6020908152604080832061ffff8f168085529083528184208a546001600160a01b0390811686529352928190205f19905588549051911691908e907fe03b818c74400ef42fafb3f6cfa61d8a38950d4f403eee88ec39bc0cafe54d249061270e9087906138b2565b60405180910390a45b5050505050505b600101612330565b5f516020614c1f5f395f51905f52546001600160a01b031690565b60fb547f821b6e3a557148015a918c89e5d092e878a69854a2d1a410635f771bd5a8a3f590610394906001600160a01b0316306108936120e6565b7f4910fdfa16fed3260ed0e7147f7cc6da11a60208b5b9406d12a635614ffd91435460ff16156127af57611d3283613150565b826001600160a01b03166352d1902d6040518163ffffffff1660e01b8152600401602060405180830381865afa925050508015612809575060408051601f3d908101601f1916820190925261280691810190614b64565b60015b61286c5760405162461bcd60e51b815260206004820152602e60248201527f45524331393637557067726164653a206e657720696d706c656d656e7461746960448201526d6f6e206973206e6f74205555505360901b606482015260840161098b565b5f516020614c1f5f395f51905f5281146128da5760405162461bcd60e51b815260206004820152602960248201527f45524331393637557067726164653a20756e737570706f727465642070726f786044820152681a58589b195555525160ba1b606482015260840161098b565b50611d328383836131eb565b5f5f5f6128f38787612934565b915091505f841180156129065750838110155b15612915575f925050506118c7565b84821015612927575f925050506118c7565b5060019695505050505050565b5f82815261016260209081526040808320805461ffff600160d01b9091048116855261016390935290832080548493849291908716908110612978576129786142d9565b5f918252602082206002909102018054909250905b81811015612b8d575f835f0182815481106129aa576129aa6142d9565b5f91825260208083209190910180548c845261015f8352604080852061ffff8e16865284528085206001600160a01b03909216808652919093529183205490935091906129fa908c908c90611579565b90505f816002811115612a0f57612a0f613d13565b14612a51576001816002811115612a2857612a28613d13565b14612a3e57612a3688614b7b565b975087612a4b565b612a4789614b7b565b9850885b50612b7f565b5f198214158015612a6b57508254600160a01b900460ff16155b15612b7f578254604051602481018490525f9182916001600160a01b039091169060440160408051601f198184030181529181526020820180516001600160e01b031663610c609960e11b17905251612ac49190614b2f565b5f60405180830381855afa9150503d805f8114612afc576040519150601f19603f3d011682016040523d82523d5f602084013e612b01565b606091505b5091509150818015612b14575080516020145b15612b7c575f81806020019051810190612b2e919061482c565b90508015612b7a5760018654600160b01b900460ff166002811115612b5557612b55613d13565b14612b6b57612b638b614b7b565b9a508a612b78565b612b748c614b7b565b9b508b5b505b505b50505b50505080600101905061298d565b505050509250929050565b8051612bb4906001600160a01b0316632a4f53ad60e11b61320f565b8015612bd55750600181602001516001811115612bd357612bd3613d13565b145b15612bf5578060405163266d0fb960e01b815260040161098b9190614077565b805161012d80546001600160a01b039092166001600160a01b031983168117825560208401518493909183916001600160a81b03191617600160a01b836001811115612c4357612c43613d13565b02179055509050507f88e879ae0d71faf3aa708f2978daccb99b95243615dc104835b8c5a21c884ae681604051612c7a9190614077565b60405180910390a150565b8054600160d01b900461ffff165f9081526101636020526040812054612cad90600190614a15565b9154600160c01b900461ffff16909114919050565b7f47ff9796f72d439c6e5c30a24b9fad985a00c85a9f2258074c400a94f8746b0080612cee8382614616565b507fbb39ebb37e60fb5d606ffdb749d2336e56b88e6c88c4bd6513b308f643186eed82604051612d1e91906138b2565b60405180910390a15050565b5f828152610162602090815260408083208054600160d01b900461ffff1684526101639092529091208054612d6190600190614a15565b8254600160c01b900461ffff161015612f975781545f908390601890612d9190600160c01b900461ffff16614b93565b825461ffff8083166101009490940a8481029102199091161790925584546001600160401b034216600160801b0267ffffffffffffffff60801b1990911617855583549192505f918491908110612dea57612dea6142d9565b5f9182526020909120600290910201546001600160401b03811115612e1157612e11613935565b604051908082528060200260200182016040528015612e4457816020015b6060815260200190600190039081612e2f5790505b5090505f5b838361ffff1681548110612e5f57612e5f6142d9565b5f918252602090912060029091020154811015612f47575f8781526101616020908152604080832061ffff87168452825280832084845290915290208054612ea69061430b565b80601f0160208091040260200160405190810160405280929190818152602001828054612ed29061430b565b8015612f1d5780601f10612ef457610100808354040283529160200191612f1d565b820191905f5260205f20905b815481529060010190602001808311612f0057829003601f168201915b5050505050828281518110612f3457612f346142d9565b6020908102919091010152600101612e49565b50612f54868342846122da565b846001600160a01b03168261ffff16877fa21690322ce39bce6ee8416aefbe1e66cf767ff37e9db8f708a3c6cbbf17db9b60405160405180910390a450506104e2565b6104e2845b5f81815261016260209081526040808320805460ff60e01b1916600160e01b178155600381015460028201805484518187028101870190955280855292956130fc956001600160a01b03909316948894909390919084015b828210156130d5575f848152602090819020604080516060810182526003860290920180546001600160a01b03168352600181015493830193909352600283018054929392918401916130469061430b565b80601f01602080910402602001604051908101604052809291908181526020018280546130729061430b565b80156130bd5780601f10613094576101008083540402835291602001916130bd565b820191905f5260205f20905b8154815290600101906020018083116130a057829003601f168201915b50505050508152505081526020019060010190612ff4565b5050865460038801546001600160801b039091169250600160a01b900460ff16905061322a565b505060405182907f712ae1383f79ac853f8d882153778e0260ef8f03b504e2866e0593e04d2b291f905f90a25050565b5f6001600160e01b03198216634a06561b60e11b14806108525750610852826133b1565b6001600160a01b0381163b6131bd5760405162461bcd60e51b815260206004820152602d60248201527f455243313936373a206e657720696d706c656d656e746174696f6e206973206e60448201526c1bdd08184818dbdb9d1c9858dd609a1b606482015260840161098b565b5f516020614c1f5f395f51905f5280546001600160a01b0319166001600160a01b0392909216919091179055565b6131f483613400565b5f825111806132005750805b15611d32576104e2838361343f565b5f61321983613464565b8015611bc45750611bc48383613496565b60605f600183600181111561324157613241613d13565b0361332f575f6060886001600160a01b031688888860405160240161326893929190614bb3565b60408051601f198184030181529181526020820180516001600160e01b03166331c6fcc960e21b1790525161329d9190614b2f565b5f60405180830381855af49150503d805f81146132d5576040519150601f19603f3d011682016040523d82523d5f602084013e6132da565b606091505b5090925090508161330e578051156132f55780518082602001fd5b6040516318cecad560e01b815260040160405180910390fd5b808060200190518101906133229190614bdb565b90945092506133a7915050565b6040516331c6fcc960e21b81526001600160a01b0388169063c71bf3249061335f90899089908990600401614bb3565b5f604051808303815f875af115801561337a573d5f5f3e3d5ffd5b505050506040513d5f823e601f3d908101601f191682016040526133a19190810190614bdb565b90925090505b9550959350505050565b5f6001600160e01b0319821663368d719960e21b14806133e157506001600160e01b03198216633f4644d160e21b145b8061085257506301ffc9a760e01b6001600160e01b0319831614610852565b61340981613150565b6040516001600160a01b038216907fbc7cd75a20ee27fd9adebab32041f755214dbc6bffa90cc0225b39da2e5c2d3b905f90a250565b6060611bc48383604051806060016040528060278152602001614c3f6027913961351c565b5f613476826301ffc9a760e01b613496565b8015610852575061348f826001600160e01b0319613496565b1592915050565b604080516001600160e01b03198316602480830191909152825180830390910181526044909101909152602080820180516001600160e01b03166301ffc9a760e01b17815282515f9392849283928392918391908a617530fa92503d91505f519050828015613506575060208210155b801561351157505f81115b979650505050505050565b60605f5f856001600160a01b0316856040516135389190614b2f565b5f60405180830381855af49150503d805f8114613570576040519150601f19603f3d011682016040523d82523d5f602084013e613575565b606091505b5091509150611caf86838387606083156135ef5782515f036135e8576001600160a01b0385163b6135e85760405162461bcd60e51b815260206004820152601d60248201527f416464726573733a2063616c6c20746f206e6f6e2d636f6e7472616374000000604482015260640161098b565b50816118c7565b6118c783838151156136045781518083602001fd5b8060405162461bcd60e51b815260040161098b91906138b2565b5080545f8255600302905f5260205f2090810190610737919061365a565b60405180606001604052806003906020820280368337509192915050565b808211156121425780546001600160a01b03191681555f60018201819055613685600283018261368e565b5060030161365a565b50805461369a9061430b565b5f825580601f106136a9575050565b601f0160209004905f5260205f209081019061073791905b80821115612142575f81556001016136c1565b5f602082840312156136e4575f5ffd5b81356001600160e01b031981168114611bc4575f5ffd5b5f5f83601f84011261370b575f5ffd5b5081356001600160401b03811115613721575f5ffd5b6020830191508360208285010111156113da575f5ffd5b5f5f83601f840112613748575f5ffd5b5081356001600160401b0381111561375e575f5ffd5b6020830191508360208260051b85010111156113da575f5ffd5b5f5f5f5f5f6060868803121561378c575f5ffd5b8535945060208601356001600160401b038111156137a8575f5ffd5b6137b4888289016136fb565b90955093505060408601356001600160401b038111156137d2575f5ffd5b6137de88828901613738565b969995985093965092949392505050565b803561ffff81168114611c8e575f5ffd5b6001600160a01b0381168114610737575f5ffd5b5f5f5f60608486031215613826575f5ffd5b83359250613836602085016137ef565b9150604084013561384681613800565b809150509250925092565b5f5f5f60608486031215613863575f5ffd5b83359250613873602085016137ef565b929592945050506040919091013590565b5f81518084528060208401602086015e5f602082860101526020601f19601f83011685010191505092915050565b602081525f611bc46020830184613884565b6060810181835f5b60038110156138ee57815160ff168352602092830192909101906001016138cc565b50505092915050565b5f5f60208385031215613908575f5ffd5b82356001600160401b0381111561391d575f5ffd5b61392985828601613738565b90969095509350505050565b634e487b7160e01b5f52604160045260245ffd5b604051606081016001600160401b038111828210171561396b5761396b613935565b60405290565b604051601f8201601f191681016001600160401b038111828210171561399957613999613935565b604052919050565b5f6001600160401b038211156139b9576139b9613935565b50601f01601f191660200190565b5f82601f8301126139d6575f5ffd5b81356139e96139e4826139a1565b613971565b8181528460208386010111156139fd575f5ffd5b816020850160208301375f918101602001919091529392505050565b5f6001600160401b03821115613a3157613a31613935565b5060051b60200190565b5f82601f830112613a4a575f5ffd5b8135613a586139e482613a19565b8082825260208201915060208360051b860101925085831115613a79575f5ffd5b602085015b83811015613b0e5780356001600160401b03811115613a9b575f5ffd5b86016060818903601f19011215613ab0575f5ffd5b613ab8613949565b6020820135613ac681613800565b81526040820135602082015260608201356001600160401b03811115613aea575f5ffd5b613af98a6020838601016139c7565b60408301525084525060209283019201613a7e565b5095945050505050565b80356001600160401b0381168114611c8e575f5ffd5b5f82601f830112613b3d575f5ffd5b8135613b4b6139e482613a19565b8082825260208201915060208360051b860101925085831115613b6c575f5ffd5b602085015b83811015613b0e5780356001600160401b03811115613b8e575f5ffd5b8601603f81018813613b9e575f5ffd5b6020810135613baf6139e482613a19565b808282526020820191506020808460051b8601010192508a831115613bd2575f5ffd5b604084015b83811015613c125780356001600160401b03811115613bf4575f5ffd5b613c038d6040888401016139c7565b84525060209283019201613bd7565b5086525050602093840193919091019050613b71565b5f5f5f5f5f60a08688031215613c3c575f5ffd5b85356001600160401b03811115613c51575f5ffd5b613c5d888289016139c7565b95505060208601356001600160401b03811115613c78575f5ffd5b613c8488828901613a3b565b94505060408601356001600160801b0381168114613ca0575f5ffd5b9250613cae60608701613b18565b915060808601356001600160401b03811115613cc8575f5ffd5b613cd488828901613b2e565b9150509295509295909350565b5f60208284031215613cf1575f5ffd5b8135611bc481613800565b5f60208284031215613d0c575f5ffd5b5035919050565b634e487b7160e01b5f52602160045260245ffd5b6020810160058310613d3b57613d3b613d13565b91905290565b6003811061073757610737613d13565b60208101613d3b83613d41565b5f5f60408385031215613d6f575f5ffd5b82359150613d7f602084016137ef565b90509250929050565b5f5f60408385031215613d99575f5ffd5b8235613da481613800565b915060208301356001600160401b03811115613dbe575f5ffd5b613dca858286016139c7565b9150509250929050565b8015158114610737575f5ffd5b5f5f5f5f60808587031215613df4575f5ffd5b84359350613e04602086016137ef565b9250604085013560038110613e17575f5ffd5b91506060850135613e2781613dd4565b939692955090935050565b5f60408284031215613e42575f5ffd5b50919050565b5f60408284031215613e58575f5ffd5b611bc48383613e32565b5f5f5f5f5f5f5f60c0888a031215613e78575f5ffd5b8735613e8381613800565b96506020880135613e9381613800565b955060408801356001600160401b03811115613ead575f5ffd5b613eb98a828b01613738565b90965094505060608801356001600160401b03811115613ed7575f5ffd5b613ee38a828b016136fb565b9094509250613ef790508960808a01613e32565b905092959891949750929550565b5f82825180855260208501945060208160051b830101602085015f5b83811015613f7d57848303601f19018852815180516001600160a01b0316845260208082015190850152604090810151606091850182905290613f6690850182613884565b6020998a0199909450929092019150600101613f21565b50909695505050505050565b80516001600160a01b03168252602081015160028110613fab57613fab613d13565b806020840152505050565b60208152613fd06020820183516001600160801b03169052565b5f6020830151613feb60408401826001600160401b03169052565b50604083015161ffff8116606084015250606083015161ffff8116608084015250608083015180151560a08401525060a083015180151560c08401525060c08301516001600160a01b03811660e08401525060e0830151610140610100840152614059610160840182613f05565b905061010084015161406f610120850182613f89565b509392505050565b604081016108528284613f89565b5f5f5f5f5f60a08688031215614099575f5ffd5b85356001600160401b038111156140ae575f5ffd5b6140ba888289016139c7565b95505060208601356001600160401b038111156140d5575f5ffd5b6140e188828901613a3b565b9450506140f060408701613b18565b92506140fe60608701613b18565b915060808601356001600160401b03811115614118575f5ffd5b613cd4888289016139c7565b5f5f60208385031215614135575f5ffd5b82356001600160401b0381111561414a575f5ffd5b613929858286016136fb565b5f602082016020835280845180835260408501915060408160051b8601019250602086015f5b828110156142cd57868503603f190184528151805161010080885281519088018190526020909101905f906101208901905b8083101561420857835180516001600160a01b03168352602080820151151590840152604080820151151590840152606001516141ea81613d41565b806060840152506080820191506020840193506001830192506141ae565b506020840151925061422560208a01846001600160401b03169052565b6040840151925061424160408a01846001600160401b03169052565b6060840151925061425d60608a01846001600160401b03169052565b6080840151925061427460808a018461ffff169052565b60a0840151925061428b60a08a018461ffff169052565b60c084015192506142a060c08a018415159052565b60e084015193506142b560e08a018515159052565b9750505060209485019492909201915060010161417c565b50929695505050505050565b634e487b7160e01b5f52603260045260245ffd5b5f8235605e19833603018112614301575f5ffd5b9190910192915050565b600181811c9082168061431f57607f821691505b602082108103613e4257634e487b7160e01b5f52602260045260245ffd5b601f821115611d3257805f5260205f20601f840160051c810160208510156143625750805b601f840160051c820191505b81811015614381575f815560010161436e565b5050505050565b813561439381613800565b81546001600160a01b0319166001600160a01b039190911617815560208201356001820155604082013536839003601e190181126143cf575f5ffd5b820180356001600160401b038111156143e6575f5ffd5b6020820191508036038213156143fa575f5ffd5b600283016001600160401b0382111561441557614415613935565b61442982614423835461430b565b8361433d565b5f601f83116001811461445a575f84156144435750848201355b5f19600386901b1c1916600185901b1783556144b1565b5f83815260208120601f198616915b828110156144895787850135825560209485019460019092019101614469565b50858210156144a5575f1960f88760031b161c19848801351681555b505060018460011b0183555b50505050505050565b81835281816020850137505f828201602090810191909152601f909101601f19169091010190565b604081525f6144f56040830186886144ba565b82810360208401528084825260208201905060208560051b830101865f605e19893603015b888210156145c957858403601f190185528235818112614538575f5ffd5b8a01803561454581613800565b6001600160a01b0316855260208181013590860152604081013536829003601e19018112614571575f5ffd5b016020810190356001600160401b0381111561458b575f5ffd5b803603821315614599575f5ffd5b606060408701526145ae6060870182846144ba565b9550505060208301925060208501945060018201915061451a565b50919a9950505050505050505050565b606081525f6145eb6060830186613f05565b82810360208401526145fd8186613884565b91505060018060a01b0383166040830152949350505050565b81516001600160401b0381111561462f5761462f613935565b6146438161463d845461430b565b8461433d565b6020601f821160018114614675575f831561465e5750848201515b5f19600385901b1c1916600184901b178455614381565b5f84815260208120601f198516915b828110156146a45787850151825560209485019460019092019101614684565b50848210156146c157868401515f19600387901b60f8161c191681555b50505050600190811b01905550565b6001600160401b03861681526001600160401b038516602082015260a060408201525f61470060a0830186613884565b82810360608401526147128186613f05565b9150506001600160801b03831660808301529695505050505050565b6020808252602c908201527f46756e6374696f6e206d7573742062652063616c6c6564207468726f7567682060408201526b19195b1959d85d1958d85b1b60a21b606082015260800190565b6020808252602c908201527f46756e6374696f6e206d7573742062652063616c6c6564207468726f7567682060408201526b6163746976652070726f787960a01b606082015260800190565b634e487b7160e01b5f52601160045260245ffd5b6001600160401b038181168382160190811115610852576108526147c6565b6001600160a01b03868116825285166020820152604081018490526080606082018190525f9061351190830184866144ba565b5f6020828403121561483c575f5ffd5b8151611bc481613dd4565b5f6040828403128015614858575f5ffd5b50604080519081016001600160401b038111828210171561487b5761487b613935565b604052823561488981613800565b815260208301356002811061489c575f5ffd5b60208201529392505050565b5f82601f8301126148b7575f5ffd5b81516148c56139e482613a19565b8082825260208201915060208360051b8601019250858311156148e6575f5ffd5b602085015b83811015613b0e5780516001600160401b03811115614908575f5ffd5b8601603f81018813614918575f5ffd5b60208101516149296139e4826139a1565b8181526040838301018a101561493d575f5ffd5b8160408401602083015e5f602083830101528086525050506020830192506020810190506148eb565b5f60208284031215614976575f5ffd5b81516001600160401b0381111561498b575f5ffd5b8201601f8101841361499b575f5ffd5b80516149a96139e482613a19565b8082825260208201915060208360051b8501019250868311156149ca575f5ffd5b602084015b83811015614a0a5780516001600160401b038111156149ec575f5ffd5b6149fb896020838901016148a8565b845250602092830192016149cf565b509695505050505050565b81810381811115610852576108526147c6565b5f5f85851115614a36575f5ffd5b83861115614a42575f5ffd5b5050820193919092039150565b80356bffffffffffffffffffffffff198116906014841015614a95576bffffffffffffffffffffffff196bffffffffffffffffffffffff198560140360031b1b82161691505b5092915050565b84815261ffff8416602082015260808101614ab684613d41565b836040830152821515606083015295945050505050565b60a081525f614adf60a0830188613884565b8281036020840152614af18188613f05565b90506001600160401b03861660408401526001600160401b03851660608401528281036080840152614b238185613884565b98975050505050505050565b5f82518060208501845e5f920191825250919050565b5f82614b5f57634e487b7160e01b5f52601260045260245ffd5b500490565b5f60208284031215614b74575f5ffd5b5051919050565b5f60018201614b8c57614b8c6147c6565b5060010190565b5f61ffff821661ffff8103614baa57614baa6147c6565b60010192915050565b838152606060208201525f614bcb6060830185613f05565b9050826040830152949350505050565b5f5f60408385031215614bec575f5ffd5b82516001600160401b03811115614c01575f5ffd5b614c0d858286016148a8565b60209490940151939593945050505056fe360894a13ba1a3210667c828492db98dca3e2076cc3735a920a3ca505d382bbc416464726573733a206c6f772d6c6576656c2064656c65676174652063616c6c206661696c65642862797465735b5d5b5d20737562426f64696573437573746f6d50726f706f73616c506172616d7341424929a2646970667358221220d5095cb14b4c135ee1fc4e0708362056b747b8082a84c77a6168027eaae96f5364736f6c634300081c0033","linkReferences":{}},"methodIdentifiers":{"SET_METADATA_PERMISSION_ID()":"e306bee7","SET_TARGET_CONFIG_PERMISSION_ID()":"8cb75059","UPGRADE_PLUGIN_PERMISSION_ID()":"c9c4bfca","advanceProposal(uint256)":"fdbd7eb3","canExecute(uint256)":"cc63604a","canProposalAdvance(uint256)":"5c23bfb7","cancel(uint256)":"40e58ee5","createProposal(bytes,(address,uint256,bytes)[],uint128,uint64,bytes[][])":"35ade049","createProposal(bytes,(address,uint256,bytes)[],uint64,uint64,bytes)":"ea65ab82","customProposalParamsABI()":"3d3f4b1b","dao()":"4162169f","edit(uint256,bytes,(address,uint256,bytes)[])":"0b47808d","execute(uint256)":"fe0d94c1","getBodyProposalId(uint256,uint16,address)":"1c622dea","getBodyResult(uint256,uint16,address)":"761f8acb","getCreateProposalParams(uint256,uint16,uint256)":"1f3cb5b4","getCurrentConfigIndex()":"1abf3f11","getCurrentTargetConfig()":"c98425ee","getMetadata()":"7a5b4f59","getProposal(uint256)":"c7f758a8","getProposalTally(uint256,uint16)":"4e3ed5e9","getStages(uint256)":"ef8cccb0","getTargetConfig()":"dd63c06f","getTrustedForwarder()":"ce1b815f","hasAdvancePermission(address)":"7e3f1353","hasExecutePermission(address)":"fd8d2d36","hasSucceeded(uint256)":"c218c132","implementation()":"5c60da1b","initialize(address,address,((address,bool,bool,uint8)[],uint64,uint64,uint64,uint16,uint16,bool,bool)[],bytes,(address,uint8))":"bfde57c3","isTrustedForwarder(address)":"572b6c05","pluginType()":"41de6830","proposalCount()":"da35c664","protocolVersion()":"2ae9c600","proxiableUUID()":"52d1902d","reportProposalResult(uint256,uint16,uint8,bool)":"52303962","setMetadata(bytes)":"ee57e36f","setTargetConfig((address,uint8))":"bb225da2","setTrustedForwarder(address)":"da742228","state(uint256)":"3e4f49e6","supportsInterface(bytes4)":"01ffc9a7","updateStages(((address,bool,bool,uint8)[],uint64,uint64,uint64,uint16,uint16,bool,bool)[])":"30196ab9","upgradeTo(address)":"3659cfe6","upgradeToAndCall(address,bytes)":"4f1ef286"},"storageLayout":{"storage":[{"astId":2210,"contract":"src/StagedProposalProcessor.sol:StagedProposalProcessor","label":"_initialized","offset":0,"slot":"0","type":"t_uint8"},{"astId":2213,"contract":"src/StagedProposalProcessor.sol:StagedProposalProcessor","label":"_initializing","offset":1,"slot":"0","type":"t_bool"},{"astId":3312,"contract":"src/StagedProposalProcessor.sol:StagedProposalProcessor","label":"__gap","offset":0,"slot":"1","type":"t_array(t_uint256)50_storage"},{"astId":1595,"contract":"src/StagedProposalProcessor.sol:StagedProposalProcessor","label":"proposalCounter","offset":0,"slot":"51","type":"t_struct(Counter)2896_storage"},{"astId":1687,"contract":"src/StagedProposalProcessor.sol:StagedProposalProcessor","label":"__gap","offset":0,"slot":"52","type":"t_array(t_uint256)49_storage"},{"astId":2192,"contract":"src/StagedProposalProcessor.sol:StagedProposalProcessor","label":"__gap","offset":0,"slot":"101","type":"t_array(t_uint256)50_storage"},{"astId":2508,"contract":"src/StagedProposalProcessor.sol:StagedProposalProcessor","label":"__gap","offset":0,"slot":"151","type":"t_array(t_uint256)50_storage"},{"astId":2889,"contract":"src/StagedProposalProcessor.sol:StagedProposalProcessor","label":"__gap","offset":0,"slot":"201","type":"t_array(t_uint256)50_storage"},{"astId":170,"contract":"src/StagedProposalProcessor.sol:StagedProposalProcessor","label":"dao_","offset":0,"slot":"251","type":"t_contract(IDAO)108"},{"astId":219,"contract":"src/StagedProposalProcessor.sol:StagedProposalProcessor","label":"__gap","offset":0,"slot":"252","type":"t_array(t_uint256)49_storage"},{"astId":1108,"contract":"src/StagedProposalProcessor.sol:StagedProposalProcessor","label":"currentTargetConfig","offset":0,"slot":"301","type":"t_struct(TargetConfig)1059_storage"},{"astId":1489,"contract":"src/StagedProposalProcessor.sol:StagedProposalProcessor","label":"__gap","offset":0,"slot":"302","type":"t_array(t_uint256)49_storage"},{"astId":44093,"contract":"src/StagedProposalProcessor.sol:StagedProposalProcessor","label":"bodyProposalIds","offset":0,"slot":"351","type":"t_mapping(t_uint256,t_mapping(t_uint16,t_mapping(t_address,t_uint256)))"},{"astId":44103,"contract":"src/StagedProposalProcessor.sol:StagedProposalProcessor","label":"bodyResults","offset":0,"slot":"352","type":"t_mapping(t_uint256,t_mapping(t_uint16,t_mapping(t_address,t_enum(ResultType)44023)))"},{"astId":44112,"contract":"src/StagedProposalProcessor.sol:StagedProposalProcessor","label":"createProposalParams","offset":0,"slot":"353","type":"t_mapping(t_uint256,t_mapping(t_uint16,t_mapping(t_uint256,t_bytes_storage)))"},{"astId":44118,"contract":"src/StagedProposalProcessor.sol:StagedProposalProcessor","label":"proposals","offset":0,"slot":"354","type":"t_mapping(t_uint256,t_struct(Proposal)44084_storage)"},{"astId":44125,"contract":"src/StagedProposalProcessor.sol:StagedProposalProcessor","label":"stages","offset":0,"slot":"355","type":"t_mapping(t_uint256,t_array(t_struct(Stage)44061_storage)dyn_storage)"},{"astId":44128,"contract":"src/StagedProposalProcessor.sol:StagedProposalProcessor","label":"currentConfigIndex","offset":0,"slot":"356","type":"t_uint16"},{"astId":44131,"contract":"src/StagedProposalProcessor.sol:StagedProposalProcessor","label":"trustedForwarder","offset":2,"slot":"356","type":"t_address"},{"astId":46323,"contract":"src/StagedProposalProcessor.sol:StagedProposalProcessor","label":"__gap","offset":0,"slot":"357","type":"t_array(t_uint256)44_storage"}],"types":{"t_address":{"encoding":"inplace","label":"address","numberOfBytes":"20"},"t_array(t_struct(Action)118_storage)dyn_storage":{"encoding":"dynamic_array","label":"struct Action[]","numberOfBytes":"32","base":"t_struct(Action)118_storage"},"t_array(t_struct(Body)44041_storage)dyn_storage":{"encoding":"dynamic_array","label":"struct StagedProposalProcessor.Body[]","numberOfBytes":"32","base":"t_struct(Body)44041_storage"},"t_array(t_struct(Stage)44061_storage)dyn_storage":{"encoding":"dynamic_array","label":"struct StagedProposalProcessor.Stage[]","numberOfBytes":"32","base":"t_struct(Stage)44061_storage"},"t_array(t_uint256)44_storage":{"encoding":"inplace","label":"uint256[44]","numberOfBytes":"1408","base":"t_uint256"},"t_array(t_uint256)49_storage":{"encoding":"inplace","label":"uint256[49]","numberOfBytes":"1568","base":"t_uint256"},"t_array(t_uint256)50_storage":{"encoding":"inplace","label":"uint256[50]","numberOfBytes":"1600","base":"t_uint256"},"t_bool":{"encoding":"inplace","label":"bool","numberOfBytes":"1"},"t_bytes_storage":{"encoding":"bytes","label":"bytes","numberOfBytes":"32"},"t_contract(IDAO)108":{"encoding":"inplace","label":"contract IDAO","numberOfBytes":"20"},"t_enum(Operation)1052":{"encoding":"inplace","label":"enum IPlugin.Operation","numberOfBytes":"1"},"t_enum(ResultType)44023":{"encoding":"inplace","label":"enum StagedProposalProcessor.ResultType","numberOfBytes":"1"},"t_mapping(t_address,t_enum(ResultType)44023)":{"encoding":"mapping","key":"t_address","label":"mapping(address => enum StagedProposalProcessor.ResultType)","numberOfBytes":"32","value":"t_enum(ResultType)44023"},"t_mapping(t_address,t_uint256)":{"encoding":"mapping","key":"t_address","label":"mapping(address => uint256)","numberOfBytes":"32","value":"t_uint256"},"t_mapping(t_uint16,t_mapping(t_address,t_enum(ResultType)44023))":{"encoding":"mapping","key":"t_uint16","label":"mapping(uint16 => mapping(address => enum StagedProposalProcessor.ResultType))","numberOfBytes":"32","value":"t_mapping(t_address,t_enum(ResultType)44023)"},"t_mapping(t_uint16,t_mapping(t_address,t_uint256))":{"encoding":"mapping","key":"t_uint16","label":"mapping(uint16 => mapping(address => uint256))","numberOfBytes":"32","value":"t_mapping(t_address,t_uint256)"},"t_mapping(t_uint16,t_mapping(t_uint256,t_bytes_storage))":{"encoding":"mapping","key":"t_uint16","label":"mapping(uint16 => mapping(uint256 => bytes))","numberOfBytes":"32","value":"t_mapping(t_uint256,t_bytes_storage)"},"t_mapping(t_uint256,t_array(t_struct(Stage)44061_storage)dyn_storage)":{"encoding":"mapping","key":"t_uint256","label":"mapping(uint256 => struct StagedProposalProcessor.Stage[])","numberOfBytes":"32","value":"t_array(t_struct(Stage)44061_storage)dyn_storage"},"t_mapping(t_uint256,t_bytes_storage)":{"encoding":"mapping","key":"t_uint256","label":"mapping(uint256 => bytes)","numberOfBytes":"32","value":"t_bytes_storage"},"t_mapping(t_uint256,t_mapping(t_uint16,t_mapping(t_address,t_enum(ResultType)44023)))":{"encoding":"mapping","key":"t_uint256","label":"mapping(uint256 => mapping(uint16 => mapping(address => enum StagedProposalProcessor.ResultType)))","numberOfBytes":"32","value":"t_mapping(t_uint16,t_mapping(t_address,t_enum(ResultType)44023))"},"t_mapping(t_uint256,t_mapping(t_uint16,t_mapping(t_address,t_uint256)))":{"encoding":"mapping","key":"t_uint256","label":"mapping(uint256 => mapping(uint16 => mapping(address => uint256)))","numberOfBytes":"32","value":"t_mapping(t_uint16,t_mapping(t_address,t_uint256))"},"t_mapping(t_uint256,t_mapping(t_uint16,t_mapping(t_uint256,t_bytes_storage)))":{"encoding":"mapping","key":"t_uint256","label":"mapping(uint256 => mapping(uint16 => mapping(uint256 => bytes)))","numberOfBytes":"32","value":"t_mapping(t_uint16,t_mapping(t_uint256,t_bytes_storage))"},"t_mapping(t_uint256,t_struct(Proposal)44084_storage)":{"encoding":"mapping","key":"t_uint256","label":"mapping(uint256 => struct StagedProposalProcessor.Proposal)","numberOfBytes":"32","value":"t_struct(Proposal)44084_storage"},"t_struct(Action)118_storage":{"encoding":"inplace","label":"struct Action","numberOfBytes":"96","members":[{"astId":113,"contract":"src/StagedProposalProcessor.sol:StagedProposalProcessor","label":"to","offset":0,"slot":"0","type":"t_address"},{"astId":115,"contract":"src/StagedProposalProcessor.sol:StagedProposalProcessor","label":"value","offset":0,"slot":"1","type":"t_uint256"},{"astId":117,"contract":"src/StagedProposalProcessor.sol:StagedProposalProcessor","label":"data","offset":0,"slot":"2","type":"t_bytes_storage"}]},"t_struct(Body)44041_storage":{"encoding":"inplace","label":"struct StagedProposalProcessor.Body","numberOfBytes":"32","members":[{"astId":44033,"contract":"src/StagedProposalProcessor.sol:StagedProposalProcessor","label":"addr","offset":0,"slot":"0","type":"t_address"},{"astId":44035,"contract":"src/StagedProposalProcessor.sol:StagedProposalProcessor","label":"isManual","offset":20,"slot":"0","type":"t_bool"},{"astId":44037,"contract":"src/StagedProposalProcessor.sol:StagedProposalProcessor","label":"tryAdvance","offset":21,"slot":"0","type":"t_bool"},{"astId":44040,"contract":"src/StagedProposalProcessor.sol:StagedProposalProcessor","label":"resultType","offset":22,"slot":"0","type":"t_enum(ResultType)44023"}]},"t_struct(Counter)2896_storage":{"encoding":"inplace","label":"struct CountersUpgradeable.Counter","numberOfBytes":"32","members":[{"astId":2895,"contract":"src/StagedProposalProcessor.sol:StagedProposalProcessor","label":"_value","offset":0,"slot":"0","type":"t_uint256"}]},"t_struct(Proposal)44084_storage":{"encoding":"inplace","label":"struct StagedProposalProcessor.Proposal","numberOfBytes":"128","members":[{"astId":44064,"contract":"src/StagedProposalProcessor.sol:StagedProposalProcessor","label":"allowFailureMap","offset":0,"slot":"0","type":"t_uint128"},{"astId":44066,"contract":"src/StagedProposalProcessor.sol:StagedProposalProcessor","label":"lastStageTransition","offset":16,"slot":"0","type":"t_uint64"},{"astId":44068,"contract":"src/StagedProposalProcessor.sol:StagedProposalProcessor","label":"currentStage","offset":24,"slot":"0","type":"t_uint16"},{"astId":44070,"contract":"src/StagedProposalProcessor.sol:StagedProposalProcessor","label":"stageConfigIndex","offset":26,"slot":"0","type":"t_uint16"},{"astId":44072,"contract":"src/StagedProposalProcessor.sol:StagedProposalProcessor","label":"executed","offset":28,"slot":"0","type":"t_bool"},{"astId":44074,"contract":"src/StagedProposalProcessor.sol:StagedProposalProcessor","label":"canceled","offset":29,"slot":"0","type":"t_bool"},{"astId":44076,"contract":"src/StagedProposalProcessor.sol:StagedProposalProcessor","label":"creator","offset":0,"slot":"1","type":"t_address"},{"astId":44080,"contract":"src/StagedProposalProcessor.sol:StagedProposalProcessor","label":"actions","offset":0,"slot":"2","type":"t_array(t_struct(Action)118_storage)dyn_storage"},{"astId":44083,"contract":"src/StagedProposalProcessor.sol:StagedProposalProcessor","label":"targetConfig","offset":0,"slot":"3","type":"t_struct(TargetConfig)1059_storage"}]},"t_struct(Stage)44061_storage":{"encoding":"inplace","label":"struct StagedProposalProcessor.Stage","numberOfBytes":"64","members":[{"astId":44046,"contract":"src/StagedProposalProcessor.sol:StagedProposalProcessor","label":"bodies","offset":0,"slot":"0","type":"t_array(t_struct(Body)44041_storage)dyn_storage"},{"astId":44048,"contract":"src/StagedProposalProcessor.sol:StagedProposalProcessor","label":"maxAdvance","offset":0,"slot":"1","type":"t_uint64"},{"astId":44050,"contract":"src/StagedProposalProcessor.sol:StagedProposalProcessor","label":"minAdvance","offset":8,"slot":"1","type":"t_uint64"},{"astId":44052,"contract":"src/StagedProposalProcessor.sol:StagedProposalProcessor","label":"voteDuration","offset":16,"slot":"1","type":"t_uint64"},{"astId":44054,"contract":"src/StagedProposalProcessor.sol:StagedProposalProcessor","label":"approvalThreshold","offset":24,"slot":"1","type":"t_uint16"},{"astId":44056,"contract":"src/StagedProposalProcessor.sol:StagedProposalProcessor","label":"vetoThreshold","offset":26,"slot":"1","type":"t_uint16"},{"astId":44058,"contract":"src/StagedProposalProcessor.sol:StagedProposalProcessor","label":"cancelable","offset":28,"slot":"1","type":"t_bool"},{"astId":44060,"contract":"src/StagedProposalProcessor.sol:StagedProposalProcessor","label":"editable","offset":29,"slot":"1","type":"t_bool"}]},"t_struct(TargetConfig)1059_storage":{"encoding":"inplace","label":"struct IPlugin.TargetConfig","numberOfBytes":"32","members":[{"astId":1055,"contract":"src/StagedProposalProcessor.sol:StagedProposalProcessor","label":"target","offset":0,"slot":"0","type":"t_address"},{"astId":1058,"contract":"src/StagedProposalProcessor.sol:StagedProposalProcessor","label":"operation","offset":20,"slot":"0","type":"t_enum(Operation)1052"}]},"t_uint128":{"encoding":"inplace","label":"uint128","numberOfBytes":"16"},"t_uint16":{"encoding":"inplace","label":"uint16","numberOfBytes":"2"},"t_uint256":{"encoding":"inplace","label":"uint256","numberOfBytes":"32"},"t_uint64":{"encoding":"inplace","label":"uint64","numberOfBytes":"8"},"t_uint8":{"encoding":"inplace","label":"uint8","numberOfBytes":"1"}}},"id":54}